{
  "_format": "hh-sol-artifact-1",
  "contractName": "WavePortal",
  "sourceName": "contracts/WavePortal.sol",
  "abi": [
    {
      "inputs": [],
      "stateMutability": "payable",
      "type": "constructor"
    },
    {
      "anonymous": false,
      "inputs": [
        {
          "indexed": true,
          "internalType": "address",
          "name": "from",
          "type": "address"
        },
        {
          "indexed": false,
          "internalType": "string",
          "name": "message",
          "type": "string"
        },
        {
          "indexed": false,
          "internalType": "uint256",
          "name": "timestamp",
          "type": "uint256"
        }
      ],
      "name": "NewWave",
      "type": "event"
    },
    {
      "inputs": [],
      "name": "getAllWaves",
      "outputs": [
        {
          "components": [
            {
              "internalType": "address",
              "name": "waver",
              "type": "address"
            },
            {
              "internalType": "string",
              "name": "message",
              "type": "string"
            },
            {
              "internalType": "uint256",
              "name": "timestamp",
              "type": "uint256"
            }
          ],
          "internalType": "struct WavePortal.Waves[]",
          "name": "",
          "type": "tuple[]"
        }
      ],
      "stateMutability": "view",
      "type": "function"
    },
    {
      "inputs": [],
      "name": "getTotalWaves",
      "outputs": [
        {
          "internalType": "uint256",
          "name": "",
          "type": "uint256"
        }
      ],
      "stateMutability": "view",
      "type": "function"
    },
    {
      "inputs": [],
      "name": "getTotalWavesFromAddr",
      "outputs": [
        {
          "internalType": "uint256",
          "name": "",
          "type": "uint256"
        }
      ],
      "stateMutability": "view",
      "type": "function"
    },
    {
      "inputs": [
        {
          "internalType": "string",
          "name": "message",
          "type": "string"
        }
      ],
      "name": "wave",
      "outputs": [],
      "stateMutability": "nonpayable",
      "type": "function"
    }
  ],
  "bytecode": "0x608060405262000033604051806060016040528060228152602001620015ad602291396200005b60201b6200077b1760201c565b60644442620000439190620001a8565b6200004f919062000245565b600181905550620002ec565b620000fb8160405160240162000072919062000168565b6040516020818303038152906040527f41304fac000000000000000000000000000000000000000000000000000000007bffffffffffffffffffffffffffffffffffffffffffffffffffffffff19166020820180517bffffffffffffffffffffffffffffffffffffffffffffffffffffffff8381831617835250505050620000fe60201b60201c565b50565b60008151905060006a636f6e736f6c652e6c6f679050602083016000808483855afa5050505050565b600062000134826200018c565b62000140818562000197565b9350620001528185602086016200020f565b6200015d81620002db565b840191505092915050565b6000602082019050818103600083015262000184818462000127565b905092915050565b600081519050919050565b600082825260208201905092915050565b6000620001b58262000205565b9150620001c28362000205565b9250827fffffffffffffffffffffffffffffffffffffffffffffffffffffffffffffffff03821115620001fa57620001f96200027d565b5b828201905092915050565b6000819050919050565b60005b838110156200022f57808201518184015260208101905062000212565b838111156200023f576000848401525b50505050565b6000620002528262000205565b91506200025f8362000205565b925082620002725762000271620002ac565b5b828206905092915050565b7f4e487b7100000000000000000000000000000000000000000000000000000000600052601160045260246000fd5b7f4e487b7100000000000000000000000000000000000000000000000000000000600052601260045260246000fd5b6000601f19601f8301169050919050565b6112b180620002fc6000396000f3fe608060405234801561001057600080fd5b506004361061004c5760003560e01c8063449d46c0146100515780637fa93fe31461006d5780639a2cdc081461008b578063bd43a908146100a9575b600080fd5b61006b60048036038101906100669190610b1f565b6100c7565b005b610075610519565b6040516100829190610f8a565b60405180910390f35b6100936105df565b6040516100a09190610f8a565b60405180910390f35b6100b161062a565b6040516100be9190610e48565b60405180910390f35b42601e600360003373ffffffffffffffffffffffffffffffffffffffff1673ffffffffffffffffffffffffffffffffffffffff168152602001908152602001600020546101149190611077565b10610154576040517f08c379a000000000000000000000000000000000000000000000000000000000815260040161014b90610f4a565b60405180910390fd5b60016000808282546101669190611077565b925050819055506001600260003373ffffffffffffffffffffffffffffffffffffffff1673ffffffffffffffffffffffffffffffffffffffff16815260200190815260200160002060008282546101bd9190611077565b92505081905550600460405180606001604052803373ffffffffffffffffffffffffffffffffffffffff16815260200183815260200142815250908060018154018082558091505060019003906000526020600020906003020160009091909190915060008201518160000160006101000a81548173ffffffffffffffffffffffffffffffffffffffff021916908373ffffffffffffffffffffffffffffffffffffffff1602179055506020820151816001019080519060200190610283929190610a14565b5060408201518160020155505042600360003373ffffffffffffffffffffffffffffffffffffffff1673ffffffffffffffffffffffffffffffffffffffff168152602001908152602001600020819055506103136040518060400160405280600d81526020017f257320686173207761766564210000000000000000000000000000000000000081525033610814565b606460015444426103249190611077565b61032e9190611077565b610338919061117d565b60018190555061037f6040518060400160405280600a81526020017f73656564206973202564000000000000000000000000000000000000000000008152506001546108b0565b603260015410156104c6576103c96040518060400160405280600a81526020017f25732068617320776f6e0000000000000000000000000000000000000000000081525033610814565b6000655af3107a4000905047811115610417576040517f08c379a000000000000000000000000000000000000000000000000000000000815260040161040e90610f2a565b60405180910390fd5b60003373ffffffffffffffffffffffffffffffffffffffff168260405161043d90610e33565b60006040518083038185875af1925050503d806000811461047a576040519150601f19603f3d011682016040523d82523d6000602084013e61047f565b606091505b50509050806104c3576040517f08c379a00000000000000000000000000000000000000000000000000000000081526004016104ba90610f6a565b60405180910390fd5b50505b3373ffffffffffffffffffffffffffffffffffffffff167f6728ef66814a55b797863bf8ffcd954b19cbca4ed4f0e6cf04c980705fd82c36824260405161050e929190610efa565b60405180910390a250565b600061059a6040518060400160405280601781526020017f546f74616c2077617665732066726f6d2025733a20257300000000000000000081525033600260003373ffffffffffffffffffffffffffffffffffffffff1673ffffffffffffffffffffffffffffffffffffffff1681526020019081526020016000205461094c565b600260003373ffffffffffffffffffffffffffffffffffffffff1673ffffffffffffffffffffffffffffffffffffffff16815260200190815260200160002054905090565b60006106226040518060400160405280601681526020017f5765206861766520256420746f74616c207761766573000000000000000000008152506000546108b0565b600054905090565b60606004805480602002602001604051908101604052809291908181526020016000905b8282101561077257838290600052602060002090600302016040518060600160405290816000820160009054906101000a900473ffffffffffffffffffffffffffffffffffffffff1673ffffffffffffffffffffffffffffffffffffffff1673ffffffffffffffffffffffffffffffffffffffff1681526020016001820180546106d79061114b565b80601f01602080910402602001604051908101604052809291908181526020018280546107039061114b565b80156107505780601f1061072557610100808354040283529160200191610750565b820191906000526020600020905b81548152906001019060200180831161073357829003601f168201915b505050505081526020016002820154815250508152602001906001019061064e565b50505050905090565b6108118160405160240161078f9190610e6a565b6040516020818303038152906040527f41304fac000000000000000000000000000000000000000000000000000000007bffffffffffffffffffffffffffffffffffffffffffffffffffffffff19166020820180517bffffffffffffffffffffffffffffffffffffffffffffffffffffffff83818316178352505050506109eb565b50565b6108ac828260405160240161082a929190610e8c565b6040516020818303038152906040527f319af333000000000000000000000000000000000000000000000000000000007bffffffffffffffffffffffffffffffffffffffffffffffffffffffff19166020820180517bffffffffffffffffffffffffffffffffffffffffffffffffffffffff83818316178352505050506109eb565b5050565b61094882826040516024016108c6929190610efa565b6040516020818303038152906040527f9710a9d0000000000000000000000000000000000000000000000000000000007bffffffffffffffffffffffffffffffffffffffffffffffffffffffff19166020820180517bffffffffffffffffffffffffffffffffffffffffffffffffffffffff83818316178352505050506109eb565b5050565b6109e683838360405160240161096493929190610ebc565b6040516020818303038152906040527f07c81217000000000000000000000000000000000000000000000000000000007bffffffffffffffffffffffffffffffffffffffffffffffffffffffff19166020820180517bffffffffffffffffffffffffffffffffffffffffffffffffffffffff83818316178352505050506109eb565b505050565b60008151905060006a636f6e736f6c652e6c6f679050602083016000808483855afa5050505050565b828054610a209061114b565b90600052602060002090601f016020900481019282610a425760008555610a89565b82601f10610a5b57805160ff1916838001178555610a89565b82800160010185558215610a89579182015b82811115610a88578251825591602001919060010190610a6d565b5b509050610a969190610a9a565b5090565b5b80821115610ab3576000816000905550600101610a9b565b5090565b6000610aca610ac584610fd6565b610fa5565b905082815260208101848484011115610ae257600080fd5b610aed848285611109565b509392505050565b600082601f830112610b0657600080fd5b8135610b16848260208601610ab7565b91505092915050565b600060208284031215610b3157600080fd5b600082013567ffffffffffffffff811115610b4b57600080fd5b610b5784828501610af5565b91505092915050565b6000610b6c8383610dc5565b905092915050565b610b7d816110cd565b82525050565b610b8c816110cd565b82525050565b6000610b9d82611016565b610ba78185611039565b935083602082028501610bb985611006565b8060005b85811015610bf55784840389528151610bd68582610b60565b9450610be18361102c565b925060208a01995050600181019050610bbd565b50829750879550505050505092915050565b6000610c1282611021565b610c1c8185611055565b9350610c2c818560208601611118565b610c358161126a565b840191505092915050565b6000610c4b82611021565b610c558185611066565b9350610c65818560208601611118565b610c6e8161126a565b840191505092915050565b6000610c86603483611066565b91507f547279696e6720746f207769746864726177206d6f7265206d6f6e657920746860008301527f616e2074686520636f6e7472616374206861732e0000000000000000000000006020830152604082019050919050565b6000610cec602283611066565b91507f4368696c6c206f757420666f722061206269742e2057616974203135206d696e60008301527f732e0000000000000000000000000000000000000000000000000000000000006020830152604082019050919050565b6000610d52602783611066565b91507f4661696c656420746f207769746864726177206d6f6e65792066726f6d20636f60008301527f6e74726163742e000000000000000000000000000000000000000000000000006020830152604082019050919050565b6000610db860008361104a565b9150600082019050919050565b6000606083016000830151610ddd6000860182610b74565b5060208301518482036020860152610df58282610c07565b9150506040830151610e0a6040860182610e15565b508091505092915050565b610e1e816110ff565b82525050565b610e2d816110ff565b82525050565b6000610e3e82610dab565b9150819050919050565b60006020820190508181036000830152610e628184610b92565b905092915050565b60006020820190508181036000830152610e848184610c40565b905092915050565b60006040820190508181036000830152610ea68185610c40565b9050610eb56020830184610b83565b9392505050565b60006060820190508181036000830152610ed68186610c40565b9050610ee56020830185610b83565b610ef26040830184610e24565b949350505050565b60006040820190508181036000830152610f148185610c40565b9050610f236020830184610e24565b9392505050565b60006020820190508181036000830152610f4381610c79565b9050919050565b60006020820190508181036000830152610f6381610cdf565b9050919050565b60006020820190508181036000830152610f8381610d45565b9050919050565b6000602082019050610f9f6000830184610e24565b92915050565b6000604051905081810181811067ffffffffffffffff82111715610fcc57610fcb61123b565b5b8060405250919050565b600067ffffffffffffffff821115610ff157610ff061123b565b5b601f19601f8301169050602081019050919050565b6000819050602082019050919050565b600081519050919050565b600081519050919050565b6000602082019050919050565b600082825260208201905092915050565b600081905092915050565b600082825260208201905092915050565b600082825260208201905092915050565b6000611082826110ff565b915061108d836110ff565b9250827fffffffffffffffffffffffffffffffffffffffffffffffffffffffffffffffff038211156110c2576110c16111ae565b5b828201905092915050565b60006110d8826110df565b9050919050565b600073ffffffffffffffffffffffffffffffffffffffff82169050919050565b6000819050919050565b82818337600083830152505050565b60005b8381101561113657808201518184015260208101905061111b565b83811115611145576000848401525b50505050565b6000600282049050600182168061116357607f821691505b602082108114156111775761117661120c565b5b50919050565b6000611188826110ff565b9150611193836110ff565b9250826111a3576111a26111dd565b5b828206905092915050565b7f4e487b7100000000000000000000000000000000000000000000000000000000600052601160045260246000fd5b7f4e487b7100000000000000000000000000000000000000000000000000000000600052601260045260246000fd5b7f4e487b7100000000000000000000000000000000000000000000000000000000600052602260045260246000fd5b7f4e487b7100000000000000000000000000000000000000000000000000000000600052604160045260246000fd5b6000601f19601f830116905091905056fea2646970667358221220e0815474ca125fbadd52c0dfc174a65b0bb8ae02fc28d8b65140cfe151985aba64736f6c6343000800003354686973206973207761766520706f7274616c20736d61727420636f6e7472616374",
  "linkReferences": {},
  "deployedLinkReferences": {}
}